:1003CD00013000013100010D00010E00013300016B
:1003DD000B00016600010800010A00010C00010973
:1003ED00000F214D6F68616D656420417373656DFC
:0203FD000000FE
:0C040000758920758DFD759850D28E22F4
:08040C008F993099FDC299227D
:10010D00C3E53094117480948040030201C7309888
:10011D00FD859920C298E530FD7C00641070183083
:10012D0098FD859965C298E565642B6005E565B414
:10013D002AEDAF650201C4E520B4300DD3ED940076
:10014D00EC648094804002800EE520C39431400D14
:10015D00E520D394395006E52024D08026E520C330
:10016D009441400DE520D394465006E52024C980E6
:10017D0012E520C39461401DE520D394665016E529
:10018D002024A9FF74542530F8A607AF2012040CC3
:10019D00053002010DE520642A6009E520642B601D
:1001AD000302010DD3E53094007480948050030256
:0B01BD00010D852065AF2012040C220C
:1002E800C3E53194117480948050763098FD8599D7
:1002F80020C298E531FD7C00641070047F3D805E6B
:10030800E520C39430400DE520D394395006E5200C
:1003180024D08026E520C39441400DE520D394469F
:100328005006E52024C98012E520C39461401CE5ED
:1003380020D394665015E52024A9FF740F2531F8C1
:10034800A607AF2012040C05318095E520643D70A6
:100358008FD3ED9400EC648094804084AF20120425
:020368000C2265
:1001C800E53114F566AF66EF3395E0C3648094803B
:1001D800500302025BE4F508E53014F50BAF0BEFB2
:1001E8003395E0C364809480404074542FF8E6FF50
:1001F800740F2566F8E68FF0A4250EF50DE50825A1
:100208000AFD2434F8E6FC250DFFE433C4F854F065
:10021800C8EFC4540F48F50EE50D2C540FFF743485
:100228002DF8A6070508150B80B3D3E50E940074C6
:100238008094804017E508250A2434F8A60EE4F5D2
:100248000EAF66EF3395E04F7002050C050A156690
:040258000201CD22B0
:10036A00E530D39531400585303380038531331527
:10037A0033AF33EF3395E0C364809480402D7453D8
:10038A002530F8E6FF740E2531F8E62F250EF50D17
:10039A00C4540FF50EE50D540FFF74342508F8A662
:1003AA0007050815301531153380C6D3E50E9400BC
:1003BA0074809480400C74342508F8A60E0508E46D
:0303CA00F50E220B
:10000300120400E4F53374212533F8E6FF60071288
:10001300040C053380F0E4F5337F0D12040C120158
:100023000D1202E8E565642A703C1201C8E530252B
:1000330031250C24FEF509AF09EF3395E0C3648045
:100043009480405F74342FF8E6F532C3940A7480C9
:100053009480E5325004243080022437F532FF12B5
:10006300040C150980D1E565642B703712036AE52A
:100073000814F509AF09EF3395E0C3648094804019
:100083002274342FF8E6F532C3940A74809480E521
:10009300325004243080022437F532FF12040C1549
:1000A3000980D17F0D12040CE4F50DF50AF50CF56A
:1000B30008F509F530F531F533753311AF33EF3307
:1000C30095E0C364809480400A74542FF8E4F615D5
:1000D3003380E9753311AF33EF3395E0C364809414
:1000E30080400A740F2FF8E4F6153380E975332046
:1000F300AF33EF3395E0C364809480500302002153
:0A01030074342FF8E4F6153380E69B
:0300000002025C9D
:0C025C00787FE4F6D8FD7581660202A3ED
:10026800020003E493A3F8E493A34003F68001F2A9
:1002780008DFF48029E493A3F85407240CC8C33397
:10028800C4540F4420C8834004F456800146F6DF66
:10029800E4800B01020408102040809003CDE47E26
:1002A800019360BCA3FF543F30E509541FFEE4935B
:1002B800A360010ECF54C025E060A840B8E493A322
:1002C800FAE493A3F8E493A3C8C582C8CAC583CA4D
:1002D800F0A3C8C582C8CAC583CADFE9DEE780BE05
:0103FF0000FD
:00000001FF
